{
  "_format": "hh-sol-artifact-1",
  "contractName": "BuyMeCoffee",
  "sourceName": "contracts/BuyMeCoffee.sol",
  "abi": [
    {
      "inputs": [
        {
          "internalType": "string",
          "name": "_name",
          "type": "string"
        },
        {
          "internalType": "string",
          "name": "_message",
          "type": "string"
        }
      ],
      "name": "buy",
      "outputs": [],
      "stateMutability": "payable",
      "type": "function"
    },
    {
      "inputs": [],
      "stateMutability": "nonpayable",
      "type": "constructor"
    },
    {
      "inputs": [],
      "name": "getMemos",
      "outputs": [
        {
          "components": [
            {
              "internalType": "string",
              "name": "name",
              "type": "string"
            },
            {
              "internalType": "string",
              "name": "message",
              "type": "string"
            },
            {
              "internalType": "uint256",
              "name": "timestamp",
              "type": "uint256"
            },
            {
              "internalType": "address",
              "name": "from",
              "type": "address"
            }
          ],
          "internalType": "struct BuyMeCoffee.Memo[]",
          "name": "",
          "type": "tuple[]"
        }
      ],
      "stateMutability": "view",
      "type": "function"
    }
  ],
  "bytecode": "0x608060405234801561001057600080fd5b50336000806101000a81548173ffffffffffffffffffffffffffffffffffffffff021916908373ffffffffffffffffffffffffffffffffffffffff160217905550610b71806100606000396000f3fe6080604052600436106100295760003560e01c8063865c51721461002e578063c63e529b14610059575b600080fd5b34801561003a57600080fd5b50610043610075565b60405161005091906105fd565b60405180910390f35b610073600480360381019061006e9190610768565b610258565b005b60606001805480602002602001604051908101604052809291908181526020016000905b8282101561024f57838290600052602060002090600402016040518060800160405290816000820180546100cc9061080f565b80601f01602080910402602001604051908101604052809291908181526020018280546100f89061080f565b80156101455780601f1061011a57610100808354040283529160200191610145565b820191906000526020600020905b81548152906001019060200180831161012857829003601f168201915b5050505050815260200160018201805461015e9061080f565b80601f016020809104026020016040519081016040528092919081815260200182805461018a9061080f565b80156101d75780601f106101ac576101008083540402835291602001916101d7565b820191906000526020600020905b8154815290600101906020018083116101ba57829003601f168201915b50505050508152602001600282015481526020016003820160009054906101000a900473ffffffffffffffffffffffffffffffffffffffff1673ffffffffffffffffffffffffffffffffffffffff1673ffffffffffffffffffffffffffffffffffffffff168152505081526020019060010190610099565b50505050905090565b6000341161029b576040517f08c379a00000000000000000000000000000000000000000000000000000000081526004016102929061089d565b60405180910390fd5b60008054906101000a900473ffffffffffffffffffffffffffffffffffffffff1673ffffffffffffffffffffffffffffffffffffffff166108fc349081150290604051600060405180830381858888f19350505050158015610301573d6000803e3d6000fd5b50600160405180608001604052808481526020018381526020014281526020013373ffffffffffffffffffffffffffffffffffffffff16815250908060018154018082558091505060019003906000526020600020906004020160009091909190915060008201518160000190816103799190610a69565b50602082015181600101908161038f9190610a69565b506040820151816002015560608201518160030160006101000a81548173ffffffffffffffffffffffffffffffffffffffff021916908373ffffffffffffffffffffffffffffffffffffffff16021790555050505050565b600081519050919050565b600082825260208201905092915050565b6000819050602082019050919050565b600081519050919050565b600082825260208201905092915050565b60005b8381101561044d578082015181840152602081019050610432565b60008484015250505050565b6000601f19601f8301169050919050565b600061047582610413565b61047f818561041e565b935061048f81856020860161042f565b61049881610459565b840191505092915050565b6000819050919050565b6104b6816104a3565b82525050565b600073ffffffffffffffffffffffffffffffffffffffff82169050919050565b60006104e7826104bc565b9050919050565b6104f7816104dc565b82525050565b6000608083016000830151848203600086015261051a828261046a565b91505060208301518482036020860152610534828261046a565b915050604083015161054960408601826104ad565b50606083015161055c60608601826104ee565b508091505092915050565b600061057383836104fd565b905092915050565b6000602082019050919050565b6000610593826103e7565b61059d81856103f2565b9350836020820285016105af85610403565b8060005b858110156105eb57848403895281516105cc8582610567565b94506105d78361057b565b925060208a019950506001810190506105b3565b50829750879550505050505092915050565b600060208201905081810360008301526106178184610588565b905092915050565b6000604051905090565b600080fd5b600080fd5b600080fd5b600080fd5b7f4e487b7100000000000000000000000000000000000000000000000000000000600052604160045260246000fd5b61067582610459565b810181811067ffffffffffffffff821117156106945761069361063d565b5b80604052505050565b60006106a761061f565b90506106b3828261066c565b919050565b600067ffffffffffffffff8211156106d3576106d261063d565b5b6106dc82610459565b9050602081019050919050565b82818337600083830152505050565b600061070b610706846106b8565b61069d565b90508281526020810184848401111561072757610726610638565b5b6107328482856106e9565b509392505050565b600082601f83011261074f5761074e610633565b5b813561075f8482602086016106f8565b91505092915050565b6000806040838503121561077f5761077e610629565b5b600083013567ffffffffffffffff81111561079d5761079c61062e565b5b6107a98582860161073a565b925050602083013567ffffffffffffffff8111156107ca576107c961062e565b5b6107d68582860161073a565b9150509250929050565b7f4e487b7100000000000000000000000000000000000000000000000000000000600052602260045260246000fd5b6000600282049050600182168061082757607f821691505b60208210810361083a576108396107e0565b5b50919050565b600082825260208201905092915050565b7f506c65617365207061792067726561746572207468616e203020657468657200600082015250565b6000610887601f83610840565b915061089282610851565b602082019050919050565b600060208201905081810360008301526108b68161087a565b9050919050565b60008190508160005260206000209050919050565b60006020601f8301049050919050565b600082821b905092915050565b60006008830261091f7fffffffffffffffffffffffffffffffffffffffffffffffffffffffffffffffff826108e2565b61092986836108e2565b95508019841693508086168417925050509392505050565b6000819050919050565b600061096661096161095c846104a3565b610941565b6104a3565b9050919050565b6000819050919050565b6109808361094b565b61099461098c8261096d565b8484546108ef565b825550505050565b600090565b6109a961099c565b6109b4818484610977565b505050565b5b818110156109d8576109cd6000826109a1565b6001810190506109ba565b5050565b601f821115610a1d576109ee816108bd565b6109f7846108d2565b81016020851015610a06578190505b610a1a610a12856108d2565b8301826109b9565b50505b505050565b600082821c905092915050565b6000610a4060001984600802610a22565b1980831691505092915050565b6000610a598383610a2f565b9150826002028217905092915050565b610a7282610413565b67ffffffffffffffff811115610a8b57610a8a61063d565b5b610a95825461080f565b610aa08282856109dc565b600060209050601f831160018114610ad35760008415610ac1578287015190505b610acb8582610a4d565b865550610b33565b601f198416610ae1866108bd565b60005b82811015610b0957848901518255600182019150602085019450602081019050610ae4565b86831015610b265784890151610b22601f891682610a2f565b8355505b6001600288020188555050505b50505050505056fea264697066735822122058cee9d8a67babde5c1b7c9e41b79bee6e39a8befa0928165390844b60072d7e64736f6c63430008110033",
  "linkReferences": {},
  "deployedLinkReferences": {}
}